{
  "contractName": "BEP20Token",
  "abi": [
    {
      "inputs": [],
      "stateMutability": "nonpayable",
      "type": "constructor"
    },
    {
      "anonymous": false,
      "inputs": [
        {
          "indexed": true,
          "internalType": "address",
          "name": "owner",
          "type": "address"
        },
        {
          "indexed": true,
          "internalType": "address",
          "name": "spender",
          "type": "address"
        },
        {
          "indexed": false,
          "internalType": "uint256",
          "name": "value",
          "type": "uint256"
        }
      ],
      "name": "Approval",
      "type": "event"
    },
    {
      "anonymous": false,
      "inputs": [
        {
          "indexed": false,
          "internalType": "uint256",
          "name": "id",
          "type": "uint256"
        },
        {
          "indexed": false,
          "internalType": "string",
          "name": "name",
          "type": "string"
        },
        {
          "indexed": false,
          "internalType": "uint256",
          "name": "result",
          "type": "uint256"
        },
        {
          "indexed": false,
          "internalType": "string",
          "name": "api",
          "type": "string"
        }
      ],
      "name": "ColamoQueue",
      "type": "event"
    },
    {
      "anonymous": false,
      "inputs": [
        {
          "indexed": true,
          "internalType": "uint256",
          "name": "id",
          "type": "uint256"
        },
        {
          "indexed": false,
          "internalType": "string",
          "name": "_name",
          "type": "string"
        },
        {
          "indexed": false,
          "internalType": "uint256",
          "name": "result",
          "type": "uint256"
        }
      ],
      "name": "ColamoUpdated",
      "type": "event"
    },
    {
      "anonymous": false,
      "inputs": [
        {
          "indexed": true,
          "internalType": "address",
          "name": "previousOwner",
          "type": "address"
        },
        {
          "indexed": true,
          "internalType": "address",
          "name": "newOwner",
          "type": "address"
        }
      ],
      "name": "OwnershipTransferred",
      "type": "event"
    },
    {
      "anonymous": false,
      "inputs": [
        {
          "indexed": true,
          "internalType": "address",
          "name": "from",
          "type": "address"
        },
        {
          "indexed": true,
          "internalType": "address",
          "name": "to",
          "type": "address"
        },
        {
          "indexed": false,
          "internalType": "uint256",
          "name": "value",
          "type": "uint256"
        }
      ],
      "name": "Transfer",
      "type": "event"
    },
    {
      "inputs": [
        {
          "internalType": "uint256",
          "name": "",
          "type": "uint256"
        }
      ],
      "name": "colaQueue",
      "outputs": [
        {
          "internalType": "string",
          "name": "",
          "type": "string"
        }
      ],
      "stateMutability": "view",
      "type": "function",
      "constant": true
    },
    {
      "inputs": [
        {
          "internalType": "uint256",
          "name": "",
          "type": "uint256"
        }
      ],
      "name": "colamos",
      "outputs": [
        {
          "internalType": "uint256",
          "name": "id",
          "type": "uint256"
        },
        {
          "internalType": "string",
          "name": "name",
          "type": "string"
        },
        {
          "internalType": "uint256",
          "name": "result",
          "type": "uint256"
        },
        {
          "internalType": "string",
          "name": "api",
          "type": "string"
        }
      ],
      "stateMutability": "view",
      "type": "function",
      "constant": true
    },
    {
      "inputs": [],
      "name": "colamosCount",
      "outputs": [
        {
          "internalType": "uint256",
          "name": "",
          "type": "uint256"
        }
      ],
      "stateMutability": "view",
      "type": "function",
      "constant": true
    },
    {
      "inputs": [],
      "name": "owner",
      "outputs": [
        {
          "internalType": "address",
          "name": "",
          "type": "address"
        }
      ],
      "stateMutability": "view",
      "type": "function",
      "constant": true
    },
    {
      "inputs": [],
      "name": "queueCount",
      "outputs": [
        {
          "internalType": "uint256",
          "name": "",
          "type": "uint256"
        }
      ],
      "stateMutability": "view",
      "type": "function",
      "constant": true
    },
    {
      "inputs": [],
      "name": "renounceOwnership",
      "outputs": [],
      "stateMutability": "nonpayable",
      "type": "function"
    },
    {
      "inputs": [
        {
          "internalType": "address",
          "name": "newOwner",
          "type": "address"
        }
      ],
      "name": "transferOwnership",
      "outputs": [],
      "stateMutability": "nonpayable",
      "type": "function"
    },
    {
      "inputs": [
        {
          "internalType": "string",
          "name": "_colaName",
          "type": "string"
        },
        {
          "internalType": "uint256",
          "name": "_result",
          "type": "uint256"
        },
        {
          "internalType": "string",
          "name": "_api",
          "type": "string"
        }
      ],
      "name": "addColamos",
      "outputs": [],
      "stateMutability": "nonpayable",
      "type": "function"
    },
    {
      "inputs": [
        {
          "internalType": "uint256",
          "name": "_memberId",
          "type": "uint256"
        }
      ],
      "name": "getById",
      "outputs": [
        {
          "components": [
            {
              "internalType": "uint256",
              "name": "id",
              "type": "uint256"
            },
            {
              "internalType": "string",
              "name": "name",
              "type": "string"
            },
            {
              "internalType": "uint256",
              "name": "result",
              "type": "uint256"
            },
            {
              "internalType": "string",
              "name": "api",
              "type": "string"
            }
          ],
          "internalType": "struct BEP20Token.ColaData",
          "name": "",
          "type": "tuple"
        }
      ],
      "stateMutability": "view",
      "type": "function",
      "constant": true
    },
    {
      "inputs": [
        {
          "internalType": "string",
          "name": "_colaName",
          "type": "string"
        }
      ],
      "name": "getByName",
      "outputs": [
        {
          "components": [
            {
              "internalType": "uint256",
              "name": "id",
              "type": "uint256"
            },
            {
              "internalType": "string",
              "name": "name",
              "type": "string"
            },
            {
              "internalType": "uint256",
              "name": "result",
              "type": "uint256"
            },
            {
              "internalType": "string",
              "name": "api",
              "type": "string"
            }
          ],
          "internalType": "struct BEP20Token.ColaData",
          "name": "",
          "type": "tuple"
        }
      ],
      "stateMutability": "view",
      "type": "function",
      "constant": true
    },
    {
      "inputs": [
        {
          "internalType": "string",
          "name": "_colaname",
          "type": "string"
        }
      ],
      "name": "enqueueCola",
      "outputs": [],
      "stateMutability": "nonpayable",
      "type": "function"
    },
    {
      "inputs": [],
      "name": "dequeueCola",
      "outputs": [
        {
          "internalType": "string",
          "name": "data",
          "type": "string"
        }
      ],
      "stateMutability": "nonpayable",
      "type": "function"
    },
    {
      "inputs": [
        {
          "internalType": "string",
          "name": "_colaName",
          "type": "string"
        }
      ],
      "name": "addQueue",
      "outputs": [],
      "stateMutability": "nonpayable",
      "type": "function"
    },
    {
      "inputs": [
        {
          "internalType": "string",
          "name": "_colaName",
          "type": "string"
        },
        {
          "internalType": "uint256",
          "name": "result",
          "type": "uint256"
        }
      ],
      "name": "updateValue",
      "outputs": [],
      "stateMutability": "nonpayable",
      "type": "function"
    },
    {
      "inputs": [],
      "name": "getOwner",
      "outputs": [
        {
          "internalType": "address",
          "name": "",
          "type": "address"
        }
      ],
      "stateMutability": "view",
      "type": "function",
      "constant": true
    },
    {
      "inputs": [],
      "name": "decimals",
      "outputs": [
        {
          "internalType": "uint8",
          "name": "",
          "type": "uint8"
        }
      ],
      "stateMutability": "view",
      "type": "function",
      "constant": true
    },
    {
      "inputs": [],
      "name": "symbol",
      "outputs": [
        {
          "internalType": "string",
          "name": "",
          "type": "string"
        }
      ],
      "stateMutability": "view",
      "type": "function",
      "constant": true
    },
    {
      "inputs": [],
      "name": "name",
      "outputs": [
        {
          "internalType": "string",
          "name": "",
          "type": "string"
        }
      ],
      "stateMutability": "view",
      "type": "function",
      "constant": true
    },
    {
      "inputs": [],
      "name": "totalSupply",
      "outputs": [
        {
          "internalType": "uint256",
          "name": "",
          "type": "uint256"
        }
      ],
      "stateMutability": "view",
      "type": "function",
      "constant": true
    },
    {
      "inputs": [
        {
          "internalType": "address",
          "name": "account",
          "type": "address"
        }
      ],
      "name": "balanceOf",
      "outputs": [
        {
          "internalType": "uint256",
          "name": "",
          "type": "uint256"
        }
      ],
      "stateMutability": "view",
      "type": "function",
      "constant": true
    },
    {
      "inputs": [
        {
          "internalType": "address",
          "name": "recipient",
          "type": "address"
        },
        {
          "internalType": "uint256",
          "name": "amount",
          "type": "uint256"
        }
      ],
      "name": "transfer",
      "outputs": [
        {
          "internalType": "bool",
          "name": "",
          "type": "bool"
        }
      ],
      "stateMutability": "nonpayable",
      "type": "function"
    },
    {
      "inputs": [
        {
          "internalType": "address",
          "name": "owner",
          "type": "address"
        },
        {
          "internalType": "address",
          "name": "spender",
          "type": "address"
        }
      ],
      "name": "allowance",
      "outputs": [
        {
          "internalType": "uint256",
          "name": "",
          "type": "uint256"
        }
      ],
      "stateMutability": "view",
      "type": "function",
      "constant": true
    },
    {
      "inputs": [
        {
          "internalType": "address",
          "name": "spender",
          "type": "address"
        },
        {
          "internalType": "uint256",
          "name": "amount",
          "type": "uint256"
        }
      ],
      "name": "approve",
      "outputs": [
        {
          "internalType": "bool",
          "name": "",
          "type": "bool"
        }
      ],
      "stateMutability": "nonpayable",
      "type": "function"
    },
    {
      "inputs": [
        {
          "internalType": "address",
          "name": "sender",
          "type": "address"
        },
        {
          "internalType": "address",
          "name": "recipient",
          "type": "address"
        },
        {
          "internalType": "uint256",
          "name": "amount",
          "type": "uint256"
        }
      ],
      "name": "transferFrom",
      "outputs": [
        {
          "internalType": "bool",
          "name": "",
          "type": "bool"
        }
      ],
      "stateMutability": "nonpayable",
      "type": "function"
    },
    {
      "inputs": [
        {
          "internalType": "address",
          "name": "spender",
          "type": "address"
        },
        {
          "internalType": "uint256",
          "name": "addedValue",
          "type": "uint256"
        }
      ],
      "name": "increaseAllowance",
      "outputs": [
        {
          "internalType": "bool",
          "name": "",
          "type": "bool"
        }
      ],
      "stateMutability": "nonpayable",
      "type": "function"
    },
    {
      "inputs": [
        {
          "internalType": "address",
          "name": "spender",
          "type": "address"
        },
        {
          "internalType": "uint256",
          "name": "subtractedValue",
          "type": "uint256"
        }
      ],
      "name": "decreaseAllowance",
      "outputs": [
        {
          "internalType": "bool",
          "name": "",
          "type": "bool"
        }
      ],
      "stateMutability": "nonpayable",
      "type": "function"
    },
    {
      "inputs": [
        {
          "internalType": "uint256",
          "name": "amount",
          "type": "uint256"
        }
      ],
      "name": "mint",
      "outputs": [
        {
          "internalType": "bool",
          "name": "",
          "type": "bool"
        }
      ],
      "stateMutability": "nonpayable",
      "type": "function"
    }
  ],
  "bytecode": "0x60806040526001600b556000600c553480156200001b57600080fd5b5060006200002e620004a160201b60201c565b9050806000806101000a81548173ffffffffffffffffffffffffffffffffffffffff021916908373ffffffffffffffffffffffffffffffffffffffff1602179055508073ffffffffffffffffffffffffffffffffffffffff16600073ffffffffffffffffffffffffffffffffffffffff167f8be0079c531659141344cd1fd0a4f28419497f9722a3daafe3b4186f6b6457e060405160405180910390a3506040518060400160405280600581526020017f436f6c617300000000000000000000000000000000000000000000000000000081525060069080519060200190620001199291906200055b565b506040518060400160405280600481526020017f434f4c530000000000000000000000000000000000000000000000000000000081525060059080519060200190620001679291906200055b565b506012600460006101000a81548160ff021916908360ff1602179055506301312d00600381905550600354600160003373ffffffffffffffffffffffffffffffffffffffff1673ffffffffffffffffffffffffffffffffffffffff1681526020019081526020016000208190555060006009819055506000600a81905550620002476040518060400160405280600781526020017f4254432f555344000000000000000000000000000000000000000000000000008152506032604051806060016040528060348152602001620037a660349139620004a960201b60201c565b620002a96040518060400160405280600781526020017f4554482f555344000000000000000000000000000000000000000000000000008152506032604051806060016040528060348152602001620037da60349139620004a960201b60201c565b6200030b6040518060400160405280600781526020017f424e422f5553440000000000000000000000000000000000000000000000000081525060326040518060800160405280604e815260200162003710604e9139620004a960201b60201c565b6200036d6040518060400160405280600781526020017f4c54432f5553440000000000000000000000000000000000000000000000000081525060326040518060800160405280604881526020016200375e60489139620004a960201b60201c565b620003cf6040518060400160405280600781526020017f5852502f5553440000000000000000000000000000000000000000000000000081525060326040518060800160405280604881526020016200380e60489139620004a960201b60201c565b620004316040518060400160405280600881526020017f444f47452f55534400000000000000000000000000000000000000000000000081525060326040518060800160405280604881526020016200380e60489139620004a960201b60201c565b3373ffffffffffffffffffffffffffffffffffffffff16600073ffffffffffffffffffffffffffffffffffffffff167fddf252ad1be2c89b69c2b068fc378daa952ba7f163c4a11628f55a4df523b3ef60035460405162000493919062000626565b60405180910390a362000723565b600033905090565b600060405180608001604052806009548152602001858152602001848152602001838152509050806007600060095481526020019081526020016000206000820151816000015560208201518160010190805190602001906200050e9291906200055b565b50604082015181600201556060820151816003019080519060200190620005379291906200055b565b5090505060096000815480929190620005509062000672565b919050555050505050565b8280546200056990620006ee565b90600052602060002090601f0160209004810192826200058d5760008555620005d9565b82601f10620005a857805160ff1916838001178555620005d9565b82800160010185558215620005d9579182015b82811115620005d8578251825591602001919060010190620005bb565b5b509050620005e89190620005ec565b5090565b5b8082111562000607576000816000905550600101620005ed565b5090565b6000819050919050565b62000620816200060b565b82525050565b60006020820190506200063d600083018462000615565b92915050565b7f4e487b7100000000000000000000000000000000000000000000000000000000600052601160045260246000fd5b60006200067f826200060b565b91507fffffffffffffffffffffffffffffffffffffffffffffffffffffffffffffffff8203620006b457620006b362000643565b5b600182019050919050565b7f4e487b7100000000000000000000000000000000000000000000000000000000600052602260045260246000fd5b600060028204905060018216806200070757607f821691505b6020821081036200071d576200071c620006bf565b5b50919050565b612fdd80620007336000396000f3fe608060405234801561001057600080fd5b50600436106101a95760003560e01c80638da5cb5b116100f9578063a9059cbb11610097578063f2fde38b11610071578063f2fde38b14610511578063f4f4d2371461052d578063f875c9301461055d578063fe47ee7d14610579576101a9565b8063a9059cbb14610481578063b336ad83146104b1578063dd62ed3e146104e1576101a9565b80639ef36bd1116100d35780639ef36bd1146103e7578063a0712d6814610405578063a457c2d714610435578063a5ea767114610465576101a9565b80638da5cb5b1461038d5780638ecb9999146103ab57806395d89b41146103c9576101a9565b8063313ce5671161016657806370a082311161014057806370a0823114610302578063715018a614610332578063721c78481461033c578063893d20e81461036f576101a9565b8063313ce5671461028457806339509351146102a2578063425eebc2146102d2576101a9565b806306fdde03146101ae578063095ea7b3146101cc5780630efbbaa1146101fc5780631030241b1461021a57806318160ddd1461023657806323b872dd14610254575b600080fd5b6101b6610595565b6040516101c39190612192565b60405180910390f35b6101e660048036038101906101e1919061225c565b610627565b6040516101f391906122b7565b60405180910390f35b610204610645565b6040516102119190612192565b60405180910390f35b610234600480360381019061022f9190612407565b610736565b005b61023e61077d565b60405161024b919061245f565b60405180910390f35b61026e6004803603810190610269919061247a565b610787565b60405161027b91906122b7565b60405180910390f35b61028c610860565b60405161029991906124e9565b60405180910390f35b6102bc60048036038101906102b7919061225c565b610877565b6040516102c991906122b7565b60405180910390f35b6102ec60048036038101906102e79190612504565b61092a565b6040516102f99190612192565b60405180910390f35b61031c60048036038101906103179190612531565b6109ca565b604051610329919061245f565b60405180910390f35b61033a610a13565b005b61035660048036038101906103519190612504565b610b66565b604051610366949392919061255e565b60405180910390f35b610377610ca6565b60405161038491906125c0565b60405180910390f35b610395610cb5565b6040516103a291906125c0565b60405180910390f35b6103b3610cde565b6040516103c0919061245f565b60405180910390f35b6103d1610ce4565b6040516103de9190612192565b60405180910390f35b6103ef610d76565b6040516103fc919061245f565b60405180910390f35b61041f600480360381019061041a9190612504565b610d7c565b60405161042c91906122b7565b60405180910390f35b61044f600480360381019061044a919061225c565b610e2d565b60405161045c91906122b7565b60405180910390f35b61047f600480360381019061047a91906125db565b610efa565b005b61049b6004803603810190610496919061225c565b610ff7565b6040516104a891906122b7565b60405180910390f35b6104cb60048036038101906104c69190612407565b611015565b6040516104d891906126fa565b60405180910390f35b6104fb60048036038101906104f6919061271c565b611332565b604051610508919061245f565b60405180910390f35b61052b60048036038101906105269190612531565b6113b9565b005b61054760048036038101906105429190612504565b61145a565b60405161055491906126fa565b60405180910390f35b6105776004803603810190610572919061275c565b6115bf565b005b610593600480360381019061058e9190612407565b61166b565b005b6060600680546105a490612816565b80601f01602080910402602001604051908101604052809291908181526020018280546105d090612816565b801561061d5780601f106105f25761010080835404028352916020019161061d565b820191906000526020600020905b81548152906001019060200180831161060057829003601f168201915b5050505050905090565b600061063b61063461181a565b8484611822565b6001905092915050565b6060600b54600c54101561065857600080fd5b60086000600b548152602001908152602001600020805461067890612816565b80601f01602080910402602001604051908101604052809291908181526020018280546106a490612816565b80156106f15780601f106106c6576101008083540402835291602001916106f1565b820191906000526020600020905b8154815290600101906020018083116106d457829003601f168201915b5050505050905060086000600b54815260200190815260200160002060006107199190611fee565b6001600b600082825461072c9190612876565b9250508190555090565b6001600c60008282546107499190612876565b925050819055508060086000600c548152602001908152602001600020908051906020019061077992919061202e565b5050565b6000600354905090565b60006107948484846119eb565b610855846107a061181a565b61085085604051806060016040528060288152602001612f3560289139600260008b73ffffffffffffffffffffffffffffffffffffffff1673ffffffffffffffffffffffffffffffffffffffff168152602001908152602001600020600061080661181a565b73ffffffffffffffffffffffffffffffffffffffff1673ffffffffffffffffffffffffffffffffffffffff16815260200190815260200160002054611c779092919063ffffffff16565b611822565b600190509392505050565b6000600460009054906101000a900460ff16905090565b600061092061088461181a565b8461091b856002600061089561181a565b73ffffffffffffffffffffffffffffffffffffffff1673ffffffffffffffffffffffffffffffffffffffff16815260200190815260200160002060008973ffffffffffffffffffffffffffffffffffffffff1673ffffffffffffffffffffffffffffffffffffffff16815260200190815260200160002054611cdb90919063ffffffff16565b611822565b6001905092915050565b6008602052806000526040600020600091509050805461094990612816565b80601f016020809104026020016040519081016040528092919081815260200182805461097590612816565b80156109c25780601f10610997576101008083540402835291602001916109c2565b820191906000526020600020905b8154815290600101906020018083116109a557829003601f168201915b505050505081565b6000600160008373ffffffffffffffffffffffffffffffffffffffff1673ffffffffffffffffffffffffffffffffffffffff168152602001908152602001600020549050919050565b610a1b61181a565b73ffffffffffffffffffffffffffffffffffffffff1660008054906101000a900473ffffffffffffffffffffffffffffffffffffffff1673ffffffffffffffffffffffffffffffffffffffff1614610aa8576040517f08c379a0000000000000000000000000000000000000000000000000000000008152600401610a9f90612918565b60405180910390fd5b600073ffffffffffffffffffffffffffffffffffffffff1660008054906101000a900473ffffffffffffffffffffffffffffffffffffffff1673ffffffffffffffffffffffffffffffffffffffff167f8be0079c531659141344cd1fd0a4f28419497f9722a3daafe3b4186f6b6457e060405160405180910390a360008060006101000a81548173ffffffffffffffffffffffffffffffffffffffff021916908373ffffffffffffffffffffffffffffffffffffffff160217905550565b6007602052806000526040600020600091509050806000015490806001018054610b8f90612816565b80601f0160208091040260200160405190810160405280929190818152602001828054610bbb90612816565b8015610c085780601f10610bdd57610100808354040283529160200191610c08565b820191906000526020600020905b815481529060010190602001808311610beb57829003601f168201915b505050505090806002015490806003018054610c2390612816565b80601f0160208091040260200160405190810160405280929190818152602001828054610c4f90612816565b8015610c9c5780601f10610c7157610100808354040283529160200191610c9c565b820191906000526020600020905b815481529060010190602001808311610c7f57829003601f168201915b5050505050905084565b6000610cb0610cb5565b905090565b60008060009054906101000a900473ffffffffffffffffffffffffffffffffffffffff16905090565b60095481565b606060058054610cf390612816565b80601f0160208091040260200160405190810160405280929190818152602001828054610d1f90612816565b8015610d6c5780601f10610d4157610100808354040283529160200191610d6c565b820191906000526020600020905b815481529060010190602001808311610d4f57829003601f168201915b5050505050905090565b600a5481565b6000610d8661181a565b73ffffffffffffffffffffffffffffffffffffffff1660008054906101000a900473ffffffffffffffffffffffffffffffffffffffff1673ffffffffffffffffffffffffffffffffffffffff1614610e13576040517f08c379a0000000000000000000000000000000000000000000000000000000008152600401610e0a90612918565b60405180910390fd5b610e24610e1e61181a565b83611d39565b60019050919050565b6000610ef0610e3a61181a565b84610eeb85604051806060016040528060258152602001612f836025913960026000610e6461181a565b73ffffffffffffffffffffffffffffffffffffffff1673ffffffffffffffffffffffffffffffffffffffff16815260200190815260200160002060008a73ffffffffffffffffffffffffffffffffffffffff1673ffffffffffffffffffffffffffffffffffffffff16815260200190815260200160002054611c779092919063ffffffff16565b611822565b6001905092915050565b60005b600954811015610ff257828051906020012060076000838152602001908152602001600020600101604051610f3291906129d7565b604051809103902003610fdf5781600760008381526020019081526020016000206002018190555060076000828152602001908152602001600020600001547f053664ec72d1568cf23595e3e468aa0a9d7ce4e22b305d9c90606f06c9f088fe600760008481526020019081526020016000206001016007600085815260200190815260200160002060020154604051610fcd929190612a83565b60405180910390a2610fdd610645565b505b8080610fea90612ab3565b915050610efd565b505050565b600061100b61100461181a565b84846119eb565b6001905092915050565b61101d6120b4565b60005b6009548110156111d35782805190602001206007600083815260200190815260200160002060010160405161105591906129d7565b6040518091039020036111c057600760008281526020019081526020016000206040518060800160405290816000820154815260200160018201805461109a90612816565b80601f01602080910402602001604051908101604052809291908181526020018280546110c690612816565b80156111135780601f106110e857610100808354040283529160200191611113565b820191906000526020600020905b8154815290600101906020018083116110f657829003601f168201915b505050505081526020016002820154815260200160038201805461113690612816565b80601f016020809104026020016040519081016040528092919081815260200182805461116290612816565b80156111af5780601f10611184576101008083540402835291602001916111af565b820191906000526020600020905b81548152906001019060200180831161119257829003601f168201915b50505050508152505091505061132d565b80806111cb90612ab3565b915050611020565b50600760008081526020019081526020016000206040518060800160405290816000820154815260200160018201805461120c90612816565b80601f016020809104026020016040519081016040528092919081815260200182805461123890612816565b80156112855780601f1061125a57610100808354040283529160200191611285565b820191906000526020600020905b81548152906001019060200180831161126857829003601f168201915b50505050508152602001600282015481526020016003820180546112a890612816565b80601f01602080910402602001604051908101604052809291908181526020018280546112d490612816565b80156113215780601f106112f657610100808354040283529160200191611321565b820191906000526020600020905b81548152906001019060200180831161130457829003601f168201915b50505050508152505090505b919050565b6000600260008473ffffffffffffffffffffffffffffffffffffffff1673ffffffffffffffffffffffffffffffffffffffff16815260200190815260200160002060008373ffffffffffffffffffffffffffffffffffffffff1673ffffffffffffffffffffffffffffffffffffffff16815260200190815260200160002054905092915050565b6113c161181a565b73ffffffffffffffffffffffffffffffffffffffff1660008054906101000a900473ffffffffffffffffffffffffffffffffffffffff1673ffffffffffffffffffffffffffffffffffffffff161461144e576040517f08c379a000000000000000000000000000000000000000000000000000000000815260040161144590612918565b60405180910390fd5b61145781611ec2565b50565b6114626120b4565b600760008381526020019081526020016000206040518060800160405290816000820154815260200160018201805461149a90612816565b80601f01602080910402602001604051908101604052809291908181526020018280546114c690612816565b80156115135780601f106114e857610100808354040283529160200191611513565b820191906000526020600020905b8154815290600101906020018083116114f657829003601f168201915b505050505081526020016002820154815260200160038201805461153690612816565b80601f016020809104026020016040519081016040528092919081815260200182805461156290612816565b80156115af5780601f10611584576101008083540402835291602001916115af565b820191906000526020600020905b81548152906001019060200180831161159257829003601f168201915b5050505050815250509050919050565b6000604051806080016040528060095481526020018581526020018481526020018381525090508060076000600954815260200190815260200160002060008201518160000155602082015181600101908051906020019061162292919061202e565b5060408201518160020155606082015181600301908051906020019061164992919061202e565b509050506009600081548092919061166090612ab3565b919050555050505050565b60005b600954811015611816578180519060200120600760008381526020019081526020016000206001016040516116a391906129d7565b604051809103902003611803577f37b3ef359a2c204ba5662bd182aa2e0eb570a162c847ec54f2072d8e629f8fb960076000838152602001908152602001600020600001546007600084815260200190815260200160002060010160076000858152602001908152602001600020600201546007600086815260200190815260200160002060030160405161173b9493929190612afb565b60405180910390a16117ea60076000838152602001908152602001600020600101805461176790612816565b80601f016020809104026020016040519081016040528092919081815260200182805461179390612816565b80156117e05780601f106117b5576101008083540402835291602001916117e0565b820191906000526020600020905b8154815290600101906020018083116117c357829003601f168201915b5050505050610736565b600a60008154809291906117fd90612ab3565b91905055505b808061180e90612ab3565b91505061166e565b5050565b600033905090565b600073ffffffffffffffffffffffffffffffffffffffff168373ffffffffffffffffffffffffffffffffffffffff1603611891576040517f08c379a000000000000000000000000000000000000000000000000000000000815260040161188890612bc0565b60405180910390fd5b600073ffffffffffffffffffffffffffffffffffffffff168273ffffffffffffffffffffffffffffffffffffffff1603611900576040517f08c379a00000000000000000000000000000000000000000000000000000000081526004016118f790612c52565b60405180910390fd5b80600260008573ffffffffffffffffffffffffffffffffffffffff1673ffffffffffffffffffffffffffffffffffffffff16815260200190815260200160002060008473ffffffffffffffffffffffffffffffffffffffff1673ffffffffffffffffffffffffffffffffffffffff168152602001908152602001600020819055508173ffffffffffffffffffffffffffffffffffffffff168373ffffffffffffffffffffffffffffffffffffffff167f8c5be1e5ebec7d5bd14f71427d1e84f3dd0314c0f7b2291e5b200ac8c7c3b925836040516119de919061245f565b60405180910390a3505050565b600073ffffffffffffffffffffffffffffffffffffffff168373ffffffffffffffffffffffffffffffffffffffff1603611a5a576040517f08c379a0000000000000000000000000000000000000000000000000000000008152600401611a5190612ce4565b60405180910390fd5b600073ffffffffffffffffffffffffffffffffffffffff168273ffffffffffffffffffffffffffffffffffffffff1603611ac9576040517f08c379a0000000000000000000000000000000000000000000000000000000008152600401611ac090612d76565b60405180910390fd5b611b3581604051806060016040528060268152602001612f5d60269139600160008773ffffffffffffffffffffffffffffffffffffffff1673ffffffffffffffffffffffffffffffffffffffff16815260200190815260200160002054611c779092919063ffffffff16565b600160008573ffffffffffffffffffffffffffffffffffffffff1673ffffffffffffffffffffffffffffffffffffffff16815260200190815260200160002081905550611bca81600160008573ffffffffffffffffffffffffffffffffffffffff1673ffffffffffffffffffffffffffffffffffffffff16815260200190815260200160002054611cdb90919063ffffffff16565b600160008473ffffffffffffffffffffffffffffffffffffffff1673ffffffffffffffffffffffffffffffffffffffff168152602001908152602001600020819055508173ffffffffffffffffffffffffffffffffffffffff168373ffffffffffffffffffffffffffffffffffffffff167fddf252ad1be2c89b69c2b068fc378daa952ba7f163c4a11628f55a4df523b3ef83604051611c6a919061245f565b60405180910390a3505050565b6000838311158290611cbf576040517f08c379a0000000000000000000000000000000000000000000000000000000008152600401611cb69190612192565b60405180910390fd5b5060008385611cce9190612d96565b9050809150509392505050565b6000808284611cea9190612876565b905083811015611d2f576040517f08c379a0000000000000000000000000000000000000000000000000000000008152600401611d2690612e16565b60405180910390fd5b8091505092915050565b600073ffffffffffffffffffffffffffffffffffffffff168273ffffffffffffffffffffffffffffffffffffffff1603611da8576040517f08c379a0000000000000000000000000000000000000000000000000000000008152600401611d9f90612e82565b60405180910390fd5b611dbd81600354611cdb90919063ffffffff16565b600381905550611e1581600160008573ffffffffffffffffffffffffffffffffffffffff1673ffffffffffffffffffffffffffffffffffffffff16815260200190815260200160002054611cdb90919063ffffffff16565b600160008473ffffffffffffffffffffffffffffffffffffffff1673ffffffffffffffffffffffffffffffffffffffff168152602001908152602001600020819055508173ffffffffffffffffffffffffffffffffffffffff16600073ffffffffffffffffffffffffffffffffffffffff167fddf252ad1be2c89b69c2b068fc378daa952ba7f163c4a11628f55a4df523b3ef83604051611eb6919061245f565b60405180910390a35050565b600073ffffffffffffffffffffffffffffffffffffffff168173ffffffffffffffffffffffffffffffffffffffff1603611f31576040517f08c379a0000000000000000000000000000000000000000000000000000000008152600401611f2890612f14565b60405180910390fd5b8073ffffffffffffffffffffffffffffffffffffffff1660008054906101000a900473ffffffffffffffffffffffffffffffffffffffff1673ffffffffffffffffffffffffffffffffffffffff167f8be0079c531659141344cd1fd0a4f28419497f9722a3daafe3b4186f6b6457e060405160405180910390a3806000806101000a81548173ffffffffffffffffffffffffffffffffffffffff021916908373ffffffffffffffffffffffffffffffffffffffff16021790555050565b508054611ffa90612816565b6000825580601f1061200c575061202b565b601f01602090049060005260206000209081019061202a91906120dc565b5b50565b82805461203a90612816565b90600052602060002090601f01602090048101928261205c57600085556120a3565b82601f1061207557805160ff19168380011785556120a3565b828001600101855582156120a3579182015b828111156120a2578251825591602001919060010190612087565b5b5090506120b091906120dc565b5090565b6040518060800160405280600081526020016060815260200160008152602001606081525090565b5b808211156120f55760008160009055506001016120dd565b5090565b600081519050919050565b600082825260208201905092915050565b60005b83811015612133578082015181840152602081019050612118565b83811115612142576000848401525b50505050565b6000601f19601f8301169050919050565b6000612164826120f9565b61216e8185612104565b935061217e818560208601612115565b61218781612148565b840191505092915050565b600060208201905081810360008301526121ac8184612159565b905092915050565b6000604051905090565b600080fd5b600080fd5b600073ffffffffffffffffffffffffffffffffffffffff82169050919050565b60006121f3826121c8565b9050919050565b612203816121e8565b811461220e57600080fd5b50565b600081359050612220816121fa565b92915050565b6000819050919050565b61223981612226565b811461224457600080fd5b50565b60008135905061225681612230565b92915050565b60008060408385031215612273576122726121be565b5b600061228185828601612211565b925050602061229285828601612247565b9150509250929050565b60008115159050919050565b6122b18161229c565b82525050565b60006020820190506122cc60008301846122a8565b92915050565b600080fd5b600080fd5b7f4e487b7100000000000000000000000000000000000000000000000000000000600052604160045260246000fd5b61231482612148565b810181811067ffffffffffffffff82111715612333576123326122dc565b5b80604052505050565b60006123466121b4565b9050612352828261230b565b919050565b600067ffffffffffffffff821115612372576123716122dc565b5b61237b82612148565b9050602081019050919050565b82818337600083830152505050565b60006123aa6123a584612357565b61233c565b9050828152602081018484840111156123c6576123c56122d7565b5b6123d1848285612388565b509392505050565b600082601f8301126123ee576123ed6122d2565b5b81356123fe848260208601612397565b91505092915050565b60006020828403121561241d5761241c6121be565b5b600082013567ffffffffffffffff81111561243b5761243a6121c3565b5b612447848285016123d9565b91505092915050565b61245981612226565b82525050565b60006020820190506124746000830184612450565b92915050565b600080600060608486031215612493576124926121be565b5b60006124a186828701612211565b93505060206124b286828701612211565b92505060406124c386828701612247565b9150509250925092565b600060ff82169050919050565b6124e3816124cd565b82525050565b60006020820190506124fe60008301846124da565b92915050565b60006020828403121561251a576125196121be565b5b600061252884828501612247565b91505092915050565b600060208284031215612547576125466121be565b5b600061255584828501612211565b91505092915050565b60006080820190506125736000830187612450565b81810360208301526125858186612159565b90506125946040830185612450565b81810360608301526125a68184612159565b905095945050505050565b6125ba816121e8565b82525050565b60006020820190506125d560008301846125b1565b92915050565b600080604083850312156125f2576125f16121be565b5b600083013567ffffffffffffffff8111156126105761260f6121c3565b5b61261c858286016123d9565b925050602061262d85828601612247565b9150509250929050565b61264081612226565b82525050565b600082825260208201905092915050565b6000612662826120f9565b61266c8185612646565b935061267c818560208601612115565b61268581612148565b840191505092915050565b60006080830160008301516126a86000860182612637565b50602083015184820360208601526126c08282612657565b91505060408301516126d56040860182612637565b50606083015184820360608601526126ed8282612657565b9150508091505092915050565b600060208201905081810360008301526127148184612690565b905092915050565b60008060408385031215612733576127326121be565b5b600061274185828601612211565b925050602061275285828601612211565b9150509250929050565b600080600060608486031215612775576127746121be565b5b600084013567ffffffffffffffff811115612793576127926121c3565b5b61279f868287016123d9565b93505060206127b086828701612247565b925050604084013567ffffffffffffffff8111156127d1576127d06121c3565b5b6127dd868287016123d9565b9150509250925092565b7f4e487b7100000000000000000000000000000000000000000000000000000000600052602260045260246000fd5b6000600282049050600182168061282e57607f821691505b602082108103612841576128406127e7565b5b50919050565b7f4e487b7100000000000000000000000000000000000000000000000000000000600052601160045260246000fd5b600061288182612226565b915061288c83612226565b9250827fffffffffffffffffffffffffffffffffffffffffffffffffffffffffffffffff038211156128c1576128c0612847565b5b828201905092915050565b7f4f776e61626c653a2063616c6c6572206973206e6f7420746865206f776e6572600082015250565b6000612902602083612104565b915061290d826128cc565b602082019050919050565b60006020820190508181036000830152612931816128f5565b9050919050565b600081905092915050565b60008190508160005260206000209050919050565b6000815461296581612816565b61296f8186612938565b9450600182166000811461298a576001811461299b576129ce565b60ff198316865281860193506129ce565b6129a485612943565b60005b838110156129c6578154818901526001820191506020810190506129a7565b838801955050505b50505092915050565b60006129e38284612958565b915081905092915050565b60008190508160005260206000209050919050565b60008154612a1081612816565b612a1a8186612104565b94506001821660008114612a355760018114612a4757612a7a565b60ff1983168652602086019350612a7a565b612a50856129ee565b60005b83811015612a7257815481890152600182019150602081019050612a53565b808801955050505b50505092915050565b60006040820190508181036000830152612a9d8185612a03565b9050612aac6020830184612450565b9392505050565b6000612abe82612226565b91507fffffffffffffffffffffffffffffffffffffffffffffffffffffffffffffffff8203612af057612aef612847565b5b600182019050919050565b6000608082019050612b106000830187612450565b8181036020830152612b228186612a03565b9050612b316040830185612450565b8181036060830152612b438184612a03565b905095945050505050565b7f42455032303a20617070726f76652066726f6d20746865207a65726f2061646460008201527f7265737300000000000000000000000000000000000000000000000000000000602082015250565b6000612baa602483612104565b9150612bb582612b4e565b604082019050919050565b60006020820190508181036000830152612bd981612b9d565b9050919050565b7f42455032303a20617070726f766520746f20746865207a65726f20616464726560008201527f7373000000000000000000000000000000000000000000000000000000000000602082015250565b6000612c3c602283612104565b9150612c4782612be0565b604082019050919050565b60006020820190508181036000830152612c6b81612c2f565b9050919050565b7f42455032303a207472616e736665722066726f6d20746865207a65726f20616460008201527f6472657373000000000000000000000000000000000000000000000000000000602082015250565b6000612cce602583612104565b9150612cd982612c72565b604082019050919050565b60006020820190508181036000830152612cfd81612cc1565b9050919050565b7f42455032303a207472616e7366657220746f20746865207a65726f206164647260008201527f6573730000000000000000000000000000000000000000000000000000000000602082015250565b6000612d60602383612104565b9150612d6b82612d04565b604082019050919050565b60006020820190508181036000830152612d8f81612d53565b9050919050565b6000612da182612226565b9150612dac83612226565b925082821015612dbf57612dbe612847565b5b828203905092915050565b7f536166654d6174683a206164646974696f6e206f766572666c6f770000000000600082015250565b6000612e00601b83612104565b9150612e0b82612dca565b602082019050919050565b60006020820190508181036000830152612e2f81612df3565b9050919050565b7f42455032303a206d696e7420746f20746865207a65726f206164647265737300600082015250565b6000612e6c601f83612104565b9150612e7782612e36565b602082019050919050565b60006020820190508181036000830152612e9b81612e5f565b9050919050565b7f4f776e61626c653a206e6577206f776e657220697320746865207a65726f206160008201527f6464726573730000000000000000000000000000000000000000000000000000602082015250565b6000612efe602683612104565b9150612f0982612ea2565b604082019050919050565b60006020820190508181036000830152612f2d81612ef1565b905091905056fe42455032303a207472616e7366657220616d6f756e74206578636565647320616c6c6f77616e636542455032303a207472616e7366657220616d6f756e7420657863656564732062616c616e636542455032303a2064656372656173656420616c6c6f77616e63652062656c6f77207a65726fa26469706673582212201923d8e6abb0165d35f50f1b4b307ac5e7a9efef8ab7ba0c0df9d6326400495264736f6c634300080d003368747470733a2f2f6465782e62696e616e63652e6f72672f6170692f76312f6b6c696e65733f73796d626f6c3d424e425f55534453422d31414326696e74657276616c3d3164266c696d69743d3168747470733a2f2f6170692e62696e616e63652e636f6d2f6170692f76312f6b6c696e65733f73796d626f6c3d4c54435553445426696e74657276616c3d3164266c696d69743d3168747470733a2f2f6170692e70726f2e636f696e626173652e636f6d2f70726f64756374732f4254432d5553442f7469636b657268747470733a2f2f6170692e70726f2e636f696e626173652e636f6d2f70726f64756374732f4554482d5553442f7469636b657268747470733a2f2f6170692e62696e616e63652e636f6d2f6170692f76312f6b6c696e65733f73796d626f6c3d5852505553445426696e74657276616c3d3164266c696d69743d31",
  "immutableReferences": {},
  "source": "pragma solidity >=0.5.0;\n\ninterface IBEP20 {\n    /**\n     * @dev Returns the amount of tokens in existence.\n     */\n    function totalSupply() external view returns (uint256);\n\n    /**\n     * @dev Returns the token decimals.\n     */\n    function decimals() external view returns (uint8);\n\n    /**\n     * @dev Returns the token symbol.\n     */\n    function symbol() external view returns (string memory);\n\n    /**\n     * @dev Returns the token name.\n     */\n    function name() external view returns (string memory);\n\n    /**\n     * @dev Returns the bep token owner.\n     */\n    function getOwner() external view returns (address);\n\n    /**\n     * @dev Returns the amount of tokens owned by `account`.\n     */\n    function balanceOf(address account) external view returns (uint256);\n\n    /**\n     * @dev Moves `amount` tokens from the caller's account to `recipient`.\n     *\n     * Returns a boolean value indicating whether the operation succeeded.\n     *\n     * Emits a {Transfer} event.\n     */\n    function transfer(address recipient, uint256 amount)\n        external\n        returns (bool);\n\n    /**\n     * @dev Returns the remaining number of tokens that `spender` will be\n     * allowed to spend on behalf of `owner` through {transferFrom}. This is\n     * zero by default.\n     *\n     * This value changes when {approve} or {transferFrom} are called.\n     */\n    function allowance(address _owner, address spender)\n        external\n        view\n        returns (uint256);\n\n    /**\n     * @dev Sets `amount` as the allowance of `spender` over the caller's tokens.\n     *\n     * Returns a boolean value indicating whether the operation succeeded.\n     *\n     * IMPORTANT: Beware that changing an allowance with this method brings the risk\n     * that someone may use both the old and the new allowance by unfortunate\n     * transaction ordering. One possible solution to mitigate this race\n     * condition is to first reduce the spender's allowance to 0 and set the\n     * desired value afterwards:\n     * https://github.com/ethereum/EIPs/issues/20#issuecomment-263524729\n     *\n     * Emits an {Approval} event.\n     */\n    function approve(address spender, uint256 amount) external returns (bool);\n\n    /**\n     * @dev Moves `amount` tokens from `sender` to `recipient` using the\n     * allowance mechanism. `amount` is then deducted from the caller's\n     * allowance.\n     *\n     * Returns a boolean value indicating whether the operation succeeded.\n     *\n     * Emits a {Transfer} event.\n     */\n    function transferFrom(\n        address sender,\n        address recipient,\n        uint256 amount\n    ) external returns (bool);\n\n    /**\n     * @dev Emitted when `value` tokens are moved from one account (`from`) to\n     * another (`to`).\n     *\n     * Note that `value` may be zero.\n     */\n    event Transfer(address indexed from, address indexed to, uint256 value);\n\n    /**\n     * @dev Emitted when the allowance of a `spender` for an `owner` is set by\n     * a call to {approve}. `value` is the new allowance.\n     */\n    event Approval(\n        address indexed owner,\n        address indexed spender,\n        uint256 value\n    );\n}\n\n/*\n * @dev Provides information about the current execution context, including the\n * sender of the transaction and its data. While these are generally available\n * via msg.sender and msg.data, they should not be accessed in such a direct\n * manner, since when dealing with GSN meta-transactions the account sending and\n * paying for execution may not be the actual sender (as far as an application\n * is concerned).\n *\n * This contract is only required for intermediate, library-like contracts.\n */\ncontract Context {\n    // Empty internal constructor, to prevent people from mistakenly deploying\n    // an instance of this contract, which should be used via inheritance.\n    constructor() {}\n\n    function _msgSender() internal view returns (address payable) {\n        return payable(msg.sender);\n    }\n\n    function _msgData() internal view returns (bytes memory) {\n        this; // silence state mutability warning without generating bytecode - see https://github.com/ethereum/solidity/issues/2691\n        return msg.data;\n    }\n}\n\n/**\n * @dev Wrappers over Solidity's arithmetic operations with added overflow\n * checks.\n *\n * Arithmetic operations in Solidity wrap on overflow. This can easily result\n * in bugs, because programmers usually assume that an overflow raises an\n * error, which is the standard behavior in high level programming languages.\n * `SafeMath` restores this intuition by reverting the transaction when an\n * operation overflows.\n *\n * Using this library instead of the unchecked operations eliminates an entire\n * class of bugs, so it's recommended to use it always.\n */\nlibrary SafeMath {\n    /**\n     * @dev Returns the addition of two unsigned integers, reverting on\n     * overflow.\n     *\n     * Counterpart to Solidity's `+` operator.\n     *\n     * Requirements:\n     * - Addition cannot overflow.\n     */\n    function add(uint256 a, uint256 b) internal pure returns (uint256) {\n        uint256 c = a + b;\n        require(c >= a, \"SafeMath: addition overflow\");\n\n        return c;\n    }\n\n    /**\n     * @dev Returns the subtraction of two unsigned integers, reverting on\n     * overflow (when the result is negative).\n     *\n     * Counterpart to Solidity's `-` operator.\n     *\n     * Requirements:\n     * - Subtraction cannot overflow.\n     */\n    function sub(uint256 a, uint256 b) internal pure returns (uint256) {\n        return sub(a, b, \"SafeMath: subtraction overflow\");\n    }\n\n    /**\n     * @dev Returns the subtraction of two unsigned integers, reverting with custom message on\n     * overflow (when the result is negative).\n     *\n     * Counterpart to Solidity's `-` operator.\n     *\n     * Requirements:\n     * - Subtraction cannot overflow.\n     */\n    function sub(\n        uint256 a,\n        uint256 b,\n        string memory errorMessage\n    ) internal pure returns (uint256) {\n        require(b <= a, errorMessage);\n        uint256 c = a - b;\n\n        return c;\n    }\n\n    /**\n     * @dev Returns the multiplication of two unsigned integers, reverting on\n     * overflow.\n     *\n     * Counterpart to Solidity's `*` operator.\n     *\n     * Requirements:\n     * - Multiplication cannot overflow.\n     */\n    function mul(uint256 a, uint256 b) internal pure returns (uint256) {\n        // Gas optimization: this is cheaper than requiring 'a' not being zero, but the\n        // benefit is lost if 'b' is also tested.\n        // See: https://github.com/OpenZeppelin/openzeppelin-contracts/pull/522\n        if (a == 0) {\n            return 0;\n        }\n\n        uint256 c = a * b;\n        require(c / a == b, \"SafeMath: multiplication overflow\");\n\n        return c;\n    }\n\n    /**\n     * @dev Returns the integer division of two unsigned integers. Reverts on\n     * division by zero. The result is rounded towards zero.\n     *\n     * Counterpart to Solidity's `/` operator. Note: this function uses a\n     * `revert` opcode (which leaves remaining gas untouched) while Solidity\n     * uses an invalid opcode to revert (consuming all remaining gas).\n     *\n     * Requirements:\n     * - The divisor cannot be zero.\n     */\n    function div(uint256 a, uint256 b) internal pure returns (uint256) {\n        return div(a, b, \"SafeMath: division by zero\");\n    }\n\n    /**\n     * @dev Returns the integer division of two unsigned integers. Reverts with custom message on\n     * division by zero. The result is rounded towards zero.\n     *\n     * Counterpart to Solidity's `/` operator. Note: this function uses a\n     * `revert` opcode (which leaves remaining gas untouched) while Solidity\n     * uses an invalid opcode to revert (consuming all remaining gas).\n     *\n     * Requirements:\n     * - The divisor cannot be zero.\n     */\n    function div(\n        uint256 a,\n        uint256 b,\n        string memory errorMessage\n    ) internal pure returns (uint256) {\n        // Solidity only automatically asserts when dividing by 0\n        require(b > 0, errorMessage);\n        uint256 c = a / b;\n        // assert(a == b * c + a % b); // There is no case in which this doesn't hold\n\n        return c;\n    }\n\n    /**\n     * @dev Returns the remainder of dividing two unsigned integers. (unsigned integer modulo),\n     * Reverts when dividing by zero.\n     *\n     * Counterpart to Solidity's `%` operator. This function uses a `revert`\n     * opcode (which leaves remaining gas untouched) while Solidity uses an\n     * invalid opcode to revert (consuming all remaining gas).\n     *\n     * Requirements:\n     * - The divisor cannot be zero.\n     */\n    function mod(uint256 a, uint256 b) internal pure returns (uint256) {\n        return mod(a, b, \"SafeMath: modulo by zero\");\n    }\n\n    /**\n     * @dev Returns the remainder of dividing two unsigned integers. (unsigned integer modulo),\n     * Reverts with custom message when dividing by zero.\n     *\n     * Counterpart to Solidity's `%` operator. This function uses a `revert`\n     * opcode (which leaves remaining gas untouched) while Solidity uses an\n     * invalid opcode to revert (consuming all remaining gas).\n     *\n     * Requirements:\n     * - The divisor cannot be zero.\n     */\n    function mod(\n        uint256 a,\n        uint256 b,\n        string memory errorMessage\n    ) internal pure returns (uint256) {\n        require(b != 0, errorMessage);\n        return a % b;\n    }\n}\n\n/**\n * @dev Contract module which provides a basic access control mechanism, where\n * there is an account (an owner) that can be granted exclusive access to\n * specific functions.\n *\n * By default, the owner account will be the one that deploys the contract. This\n * can later be changed with {transferOwnership}.\n *\n * This module is used through inheritance. It will make available the modifier\n * `onlyOwner`, which can be applied to your functions to restrict their use to\n * the owner.\n */\ncontract Ownable is Context {\n    address private _owner;\n\n    event OwnershipTransferred(\n        address indexed previousOwner,\n        address indexed newOwner\n    );\n\n    /**\n     * @dev Initializes the contract setting the deployer as the initial owner.\n     */\n    constructor() {\n        address msgSender = _msgSender();\n        _owner = msgSender;\n        emit OwnershipTransferred(address(0), msgSender);\n    }\n\n    /**\n     * @dev Returns the address of the current owner.\n     */\n    function owner() public view returns (address) {\n        return _owner;\n    }\n\n    /**\n     * @dev Throws if called by any account other than the owner.\n     */\n    modifier onlyOwner() {\n        require(_owner == _msgSender(), \"Ownable: caller is not the owner\");\n        _;\n    }\n\n    /**\n     * @dev Leaves the contract without owner. It will not be possible to call\n     * `onlyOwner` functions anymore. Can only be called by the current owner.\n     *\n     * NOTE: Renouncing ownership will leave the contract without an owner,\n     * thereby removing any functionality that is only available to the owner.\n     */\n    function renounceOwnership() public onlyOwner {\n        emit OwnershipTransferred(_owner, address(0));\n        _owner = address(0);\n    }\n\n    /**\n     * @dev Transfers ownership of the contract to a new account (`newOwner`).\n     * Can only be called by the current owner.\n     */\n    function transferOwnership(address newOwner) public onlyOwner {\n        _transferOwnership(newOwner);\n    }\n\n    /**\n     * @dev Transfers ownership of the contract to a new account (`newOwner`).\n     */\n    function _transferOwnership(address newOwner) internal {\n        require(\n            newOwner != address(0),\n            \"Ownable: new owner is the zero address\"\n        );\n        emit OwnershipTransferred(_owner, newOwner);\n        _owner = newOwner;\n    }\n}\n\ncontract BEP20Token is Context, IBEP20, Ownable {\n    using SafeMath for uint256;\n\n    mapping(address => uint256) private _balances;\n\n    mapping(address => mapping(address => uint256)) private _allowances;\n\n    uint256 private _totalSupply;\n    uint8 private _decimals;\n    string private _symbol;\n    string private _name;\n\n    struct ColaData {\n        uint256 id;\n        string name;\n        uint256 result;\n        string api;\n    }\n    mapping(uint256 => ColaData) public colamos;\n    mapping(uint256 => string) public colaQueue;\n    uint256 public colamosCount;\n    uint256 public queueCount;\n    event ColamoUpdated(uint256 indexed id, string _name, uint256 result);\n    event ColamoQueue(uint256 id, string name, uint256 result, string api);\n\n    function addColamos(\n        string memory _colaName,\n        uint256 _result,\n        string memory _api\n    ) public {\n        ColaData memory cold = ColaData(colamosCount, _colaName, _result, _api);\n        colamos[colamosCount] = cold;\n        colamosCount++;\n    }\n\n    function getById(uint256 _memberId) public view returns (ColaData memory) {\n        return colamos[_memberId];\n    }\n\n    function getByName(string memory _colaName)\n        public\n        view\n        returns (ColaData memory)\n    {\n        for (uint256 i = 0; i < colamosCount; i++) {\n            if (\n                keccak256(bytes(colamos[i].name)) == keccak256(bytes(_colaName))\n            ) {\n                return colamos[i];\n            }\n        }\n        return colamos[0];\n    }\n\n    uint256 first = 1;\n    uint256 last = 0;\n\n    function enqueueCola(string memory _colaname) public {\n        last += 1;\n        colaQueue[last] = _colaname;\n    }\n\n    function dequeueCola() public returns (string memory data) {\n        require(last >= first);\n\n        data = colaQueue[first];\n\n        delete colaQueue[first];\n        first += 1;\n    }\n\n    // to add a request queue\n    function addQueue(string memory _colaName) public {\n        for (uint256 i = 0; i < colamosCount; i++) {\n            if (\n                keccak256(bytes(colamos[i].name)) == keccak256(bytes(_colaName))\n            ) {\n                emit ColamoQueue(\n                    colamos[i].id,\n                    colamos[i].name,\n                    colamos[i].result,\n                    colamos[i].api\n                );\n                enqueueCola(colamos[i].name);\n                queueCount++;\n            }\n        }\n    }\n\n    // miner updating the value of the data\n    function updateValue(string memory _colaName, uint256 result) public {\n        for (uint256 i = 0; i < colamosCount; i++) {\n            if (\n                keccak256(bytes(colamos[i].name)) == keccak256(bytes(_colaName))\n            ) {\n                colamos[i].result = result;\n                emit ColamoUpdated(\n                    colamos[i].id,\n                    colamos[i].name,\n                    colamos[i].result\n                );\n                dequeueCola();\n            }\n        }\n    }\n\n    constructor() public {\n        _name = \"Colas\";\n        _symbol = \"COLS\";\n        _decimals = 18;\n        _totalSupply = 20000000;\n        _balances[msg.sender] = _totalSupply;\n\n        colamosCount = 0;\n        queueCount = 0;\n        addColamos(\"BTC/USD\", 50, \"https://api.pro.coinbase.com/products/BTC-USD/ticker\");\n        addColamos(\"ETH/USD\", 50, \"https://api.pro.coinbase.com/products/ETH-USD/ticker\");\n        addColamos(\"BNB/USD\", 50, \"https://dex.binance.org/api/v1/klines?symbol=BNB_USDSB-1AC&interval=1d&limit=1\");\n        addColamos(\"LTC/USD\", 50, \"https://api.binance.com/api/v1/klines?symbol=LTCUSDT&interval=1d&limit=1\");\n        addColamos(\"XRP/USD\", 50, \"https://api.binance.com/api/v1/klines?symbol=XRPUSDT&interval=1d&limit=1\");\n        addColamos(\"DOGE/USD\", 50, \"https://api.binance.com/api/v1/klines?symbol=XRPUSDT&interval=1d&limit=1\");\n        emit Transfer(address(0), msg.sender, _totalSupply);\n    }\n\n    /**\n     * @dev Returns the bep token owner.\n     */\n    function getOwner() external view returns (address) {\n        return owner();\n    }\n\n    /**\n     * @dev Returns the token decimals.\n     */\n    function decimals() external view returns (uint8) {\n        return _decimals;\n    }\n\n    /**\n     * @dev Returns the token symbol.\n     */\n    function symbol() external view returns (string memory) {\n        return _symbol;\n    }\n\n    /**\n     * @dev Returns the token name.\n     */\n    function name() external view returns (string memory) {\n        return _name;\n    }\n\n    /**\n     * @dev See {BEP20-totalSupply}.\n     */\n    function totalSupply() external view returns (uint256) {\n        return _totalSupply;\n    }\n\n    /**\n     * @dev See {BEP20-balanceOf}.\n     */\n    function balanceOf(address account) external view returns (uint256) {\n        return _balances[account];\n    }\n\n    /**\n     * @dev See {BEP20-transfer}.\n     *\n     * Requirements:\n     *\n     * - `recipient` cannot be the zero address.\n     * - the caller must have a balance of at least `amount`.\n     */\n    function transfer(address recipient, uint256 amount)\n        external\n        returns (bool)\n    {\n        _transfer(_msgSender(), recipient, amount);\n        return true;\n    }\n\n    /**\n     * @dev See {BEP20-allowance}.\n     */\n    function allowance(address owner, address spender)\n        external\n        view\n        returns (uint256)\n    {\n        return _allowances[owner][spender];\n    }\n\n    /**\n     * @dev See {BEP20-approve}.\n     *\n     * Requirements:\n     *\n     * - `spender` cannot be the zero address.\n     */\n    function approve(address spender, uint256 amount) external returns (bool) {\n        _approve(_msgSender(), spender, amount);\n        return true;\n    }\n\n    /**\n     * @dev See {BEP20-transferFrom}.\n     *\n     * Emits an {Approval} event indicating the updated allowance. This is not\n     * required by the EIP. See the note at the beginning of {BEP20};\n     *\n     * Requirements:\n     * - `sender` and `recipient` cannot be the zero address.\n     * - `sender` must have a balance of at least `amount`.\n     * - the caller must have allowance for `sender`'s tokens of at least\n     * `amount`.\n     */\n    function transferFrom(\n        address sender,\n        address recipient,\n        uint256 amount\n    ) external returns (bool) {\n        _transfer(sender, recipient, amount);\n        _approve(\n            sender,\n            _msgSender(),\n            _allowances[sender][_msgSender()].sub(\n                amount,\n                \"BEP20: transfer amount exceeds allowance\"\n            )\n        );\n        return true;\n    }\n\n    /**\n     * @dev Atomically increases the allowance granted to `spender` by the caller.\n     *\n     * This is an alternative to {approve} that can be used as a mitigation for\n     * problems described in {BEP20-approve}.\n     *\n     * Emits an {Approval} event indicating the updated allowance.\n     *\n     * Requirements:\n     *\n     * - `spender` cannot be the zero address.\n     */\n    function increaseAllowance(address spender, uint256 addedValue)\n        public\n        returns (bool)\n    {\n        _approve(\n            _msgSender(),\n            spender,\n            _allowances[_msgSender()][spender].add(addedValue)\n        );\n        return true;\n    }\n\n    /**\n     * @dev Atomically decreases the allowance granted to `spender` by the caller.\n     *\n     * This is an alternative to {approve} that can be used as a mitigation for\n     * problems described in {BEP20-approve}.\n     *\n     * Emits an {Approval} event indicating the updated allowance.\n     *\n     * Requirements:\n     *\n     * - `spender` cannot be the zero address.\n     * - `spender` must have allowance for the caller of at least\n     * `subtractedValue`.\n     */\n    function decreaseAllowance(address spender, uint256 subtractedValue)\n        public\n        returns (bool)\n    {\n        _approve(\n            _msgSender(),\n            spender,\n            _allowances[_msgSender()][spender].sub(\n                subtractedValue,\n                \"BEP20: decreased allowance below zero\"\n            )\n        );\n        return true;\n    }\n\n    /**\n     * @dev Creates `amount` tokens and assigns them to `msg.sender`, increasing\n     * the total supply.\n     *\n     * Requirements\n     *\n     * - `msg.sender` must be the token owner\n     */\n    function mint(uint256 amount) public onlyOwner returns (bool) {\n        _mint(_msgSender(), amount);\n        return true;\n    }\n\n    /**\n     * @dev Moves tokens `amount` from `sender` to `recipient`.\n     *\n     * This is internal function is equivalent to {transfer}, and can be used to\n     * e.g. implement automatic token fees, slashing mechanisms, etc.\n     *\n     * Emits a {Transfer} event.\n     *\n     * Requirements:\n     *\n     * - `sender` cannot be the zero address.\n     * - `recipient` cannot be the zero address.\n     * - `sender` must have a balance of at least `amount`.\n     */\n    function _transfer(\n        address sender,\n        address recipient,\n        uint256 amount\n    ) internal {\n        require(sender != address(0), \"BEP20: transfer from the zero address\");\n        require(recipient != address(0), \"BEP20: transfer to the zero address\");\n\n        _balances[sender] = _balances[sender].sub(\n            amount,\n            \"BEP20: transfer amount exceeds balance\"\n        );\n        _balances[recipient] = _balances[recipient].add(amount);\n        emit Transfer(sender, recipient, amount);\n    }\n\n    /** @dev Creates `amount` tokens and assigns them to `account`, increasing\n     * the total supply.\n     *\n     * Emits a {Transfer} event with `from` set to the zero address.\n     *\n     * Requirements\n     *\n     * - `to` cannot be the zero address.\n     */\n    function _mint(address account, uint256 amount) internal {\n        require(account != address(0), \"BEP20: mint to the zero address\");\n\n        _totalSupply = _totalSupply.add(amount);\n        _balances[account] = _balances[account].add(amount);\n        emit Transfer(address(0), account, amount);\n    }\n\n    /**\n     * @dev Destroys `amount` tokens from `account`, reducing the\n     * total supply.\n     *\n     * Emits a {Transfer} event with `to` set to the zero address.\n     *\n     * Requirements\n     *\n     * - `account` cannot be the zero address.\n     * - `account` must have at least `amount` tokens.\n     */\n    function _burn(address account, uint256 amount) internal {\n        require(account != address(0), \"BEP20: burn from the zero address\");\n\n        _balances[account] = _balances[account].sub(\n            amount,\n            \"BEP20: burn amount exceeds balance\"\n        );\n        _totalSupply = _totalSupply.sub(amount);\n        emit Transfer(account, address(0), amount);\n    }\n\n    /**\n     * @dev Sets `amount` as the allowance of `spender` over the `owner`s tokens.\n     *\n     * This is internal function is equivalent to `approve`, and can be used to\n     * e.g. set automatic allowances for certain subsystems, etc.\n     *\n     * Emits an {Approval} event.\n     *\n     * Requirements:\n     *\n     * - `owner` cannot be the zero address.\n     * - `spender` cannot be the zero address.\n     */\n    function _approve(\n        address owner,\n        address spender,\n        uint256 amount\n    ) internal {\n        require(owner != address(0), \"BEP20: approve from the zero address\");\n        require(spender != address(0), \"BEP20: approve to the zero address\");\n\n        _allowances[owner][spender] = amount;\n        emit Approval(owner, spender, amount);\n    }\n\n    /**\n     * @dev Destroys `amount` tokens from `account`.`amount` is then deducted\n     * from the caller's allowance.\n     *\n     * See {_burn} and {_approve}.\n     */\n    function _burnFrom(address account, uint256 amount) internal {\n        _burn(account, amount);\n        _approve(\n            account,\n            _msgSender(),\n            _allowances[account][_msgSender()].sub(\n                amount,\n                \"BEP20: burn amount exceeds allowance\"\n            )\n        );\n    }\n}\n",
  "sourcePath": "/Users/benro/testing/blockchainbaazi/contracts/coracle.sol",
  "compiler": {
    "name": "solc",
    "version": "0.8.13+commit.abaa5c0e.Emscripten.clang"
  },
  "schemaVersion": "3.4.7",
  "updatedAt": "2022-05-08T01:52:10.799Z",
  "networkType": "ethereum",
  "devdoc": {
    "kind": "dev",
    "methods": {
      "allowance(address,address)": {
        "details": "See {BEP20-allowance}."
      },
      "approve(address,uint256)": {
        "details": "See {BEP20-approve}. Requirements: - `spender` cannot be the zero address."
      },
      "balanceOf(address)": {
        "details": "See {BEP20-balanceOf}."
      },
      "decimals()": {
        "details": "Returns the token decimals."
      },
      "decreaseAllowance(address,uint256)": {
        "details": "Atomically decreases the allowance granted to `spender` by the caller. This is an alternative to {approve} that can be used as a mitigation for problems described in {BEP20-approve}. Emits an {Approval} event indicating the updated allowance. Requirements: - `spender` cannot be the zero address. - `spender` must have allowance for the caller of at least `subtractedValue`."
      },
      "getOwner()": {
        "details": "Returns the bep token owner."
      },
      "increaseAllowance(address,uint256)": {
        "details": "Atomically increases the allowance granted to `spender` by the caller. This is an alternative to {approve} that can be used as a mitigation for problems described in {BEP20-approve}. Emits an {Approval} event indicating the updated allowance. Requirements: - `spender` cannot be the zero address."
      },
      "mint(uint256)": {
        "details": "Creates `amount` tokens and assigns them to `msg.sender`, increasing the total supply. Requirements - `msg.sender` must be the token owner"
      },
      "name()": {
        "details": "Returns the token name."
      },
      "owner()": {
        "details": "Returns the address of the current owner."
      },
      "renounceOwnership()": {
        "details": "Leaves the contract without owner. It will not be possible to call `onlyOwner` functions anymore. Can only be called by the current owner. NOTE: Renouncing ownership will leave the contract without an owner, thereby removing any functionality that is only available to the owner."
      },
      "symbol()": {
        "details": "Returns the token symbol."
      },
      "totalSupply()": {
        "details": "See {BEP20-totalSupply}."
      },
      "transfer(address,uint256)": {
        "details": "See {BEP20-transfer}. Requirements: - `recipient` cannot be the zero address. - the caller must have a balance of at least `amount`."
      },
      "transferFrom(address,address,uint256)": {
        "details": "See {BEP20-transferFrom}. Emits an {Approval} event indicating the updated allowance. This is not required by the EIP. See the note at the beginning of {BEP20}; Requirements: - `sender` and `recipient` cannot be the zero address. - `sender` must have a balance of at least `amount`. - the caller must have allowance for `sender`'s tokens of at least `amount`."
      },
      "transferOwnership(address)": {
        "details": "Transfers ownership of the contract to a new account (`newOwner`). Can only be called by the current owner."
      }
    },
    "version": 1
  },
  "userdoc": {
    "kind": "user",
    "methods": {},
    "version": 1
  }
}